S0120000696E7A796E6965726B612E73726563CE
S11300000C9434000C9446000C948B000C94460021
S11300100C9446000C9446000C9446000C94460044
S11300200C9446000C9473000C9446000C94460007
S11300300C9446000C9446000C9446000C94460024
S11300400C9448000C9446000C9446000C94460012
S11300500C9446003B023E024102440247024A021B
S11300604D0250025302560211241FBECFE5D8E0C0
S1130070DEBFCDBF20E0A0E6B0E001C01D92A63BEC
S1130080B207E1F70E9463020C94E3050C940000AC
S11300901F920F920FB60F9211248F938FEF8093BC
S11300A063008F910F900FBE0F901F901895B89A10
S11300B083E08EBD1DBC1CBC88B7846088BF8BB731
S11300C080688BBF8CE085BF8AB780688ABF109236
S11300D064001092650081E080936700789489B78A
S11300E0846089BF08951F920F920FB60F92112456
S11300F08F9380916700823028F08091670081504F
S11301008093670081E0809366008F910F900FBE0B
S11301100F901F9018951F920F920FB60F921124F3
S11301202F938F939F93EF93FF9382E080936600C6
S113013005B603FE2BC005B602FE28C08CB59DB5DE
S1130140893A914658F08CB59DB58533924830F480
S113015081E0809364001092650013C08CB59DB556
S1130160803D904328F08CB59DB5833D9D4348F078
S113017080916700823028F08091670081508093DD
S113018067001DBC1CBC88E085BF55C08CB59DB5FF
S113019082349340F0F08CB59DB5843C9940C8F40A
S11301A080916700843028F4809167008F5F80938A
S11301B06700809164008130D1F5E0916500F0E042
S11301C0E859FF4F1082809165008F5F809365002E
S11301D02EC08CB59DB5853C9940F0F08CB59DB58D
S11301E087349041C8F480916700843028F480916A
S11301F067008F5F80936700809164008130B9F459
S1130200E0916500F0E0E859FF4F8083809165003C
S11302108F5F809365000BC010926400809167002B
S1130220823028F0809167008150809367001DBC64
S11302301CBC8CE085BFFF91EF919F918F912F9112
S11302400F900FBE0F901F901895CF92DF92EF92F0
S1130250FF920F931F93CF93DF93DC01909165007E
S11302609B3308F4F0C0809168008111EEC0909136
S11302707C00913009F0EEC025E130E090E0F90116
S1130280E859FF4F4081940F2F5F3F4F2D313105C7
S1130290B1F7492F417090FDDDC02DE130E080E0E1
S11302A0F901E859FF4F9081890F2F5F3F4F2432A6
S11302B03105B1F7582F517080FDC9C024E230E0F8
S11302C090E0F901E859FF4F4081940F2F5F3F4FB1
S11302D02B333105B1F7892F817090FDBAC0E8E660
S11302E0F0E07589628D538D2789908D318DD68983
S11302F0660F462F440F440F460F550F550F652FB9
S1130300660F660F560F450F4D0FD32FDD0FDD0F10
S11303103D0FD42FD30F990F920F990FD90FDD0FE3
S1130320D70FDC93658D42A1278D90A131A1C68D95
S1130330440F542F550F550F450F532F550F550F7D
S1130340350F340FC30F990F920F990FC90FCC0FAC
S1130350C60F1196CC93119764A141A526A197A12C
S113036030A505A1440F542F550F550F450F532F9A
S1130370550F550F350F340F030F990F920F990F27
S1130380090F000F060F13960C93139755A547A555
S113039030A991A926A5330F340F330F192F110F4C
S11303A0110F910F920F132F190F110F150F129692
S11303B01C93129762A923A954A945A996A9E7A851
S11303C0F0ACE1AD30E0220F331F260F311D64E0A5
S11303D0569F200D311D1124B90158E0459F600D31
S11303E0711D1124292F30E06901CC0CDD1CA901F9
S11303F0440F551F440F551F440F551F9601240FDA
S1130400351F260F371F64E1E69E200D311D112490
S113041098E2F99E200D311D112450E5E59F200D31
S1130420311D11242053384F15963C932E93149765
S1130430C93180F4DD3370F41D3060F481E00032A2
S113044048F080E007C080E005C080E003C0842F4E
S113045001C0852FDF91CF911F910F91FF90EF90F5
S1130460DF90CF9008958A30910510F5FC01E65D88
S1130470FF4F0C94CE0580E485BB089580E885BBCE
S1130480089580E88BBB089580E48BBB089580E2D7
S11304908BBB089580E18BBB089588E08BBB0895E6
S11304A084E08BBB089582E08BBB089581E08BBB15
S11304B0089589EF90E00197F1F700C000001BBA9E
S11304C015BA18BA0895CF93DF93CDB7DEB728973E
S11304D00FB6F894DEBF0FBECDBF8CEF87BBA598D7
S11304E08B988FEF8ABBAD9A81E00E940B040E9427
S11304F0570060E083E00E942A04198287E18A831E
S113050084E18B838DE18C8387E08D838AE08E8305
S113051087EE97E098878F83CE0101960E94450469
S1130520C0981DEC6894BB24B2F86894CC24C3F83A
S11305306894DD24D4F86894EE24E5F86894FF24E4
S1130540F6F800E8809164008130E1F48FEA90E0ED
S11305500E9425018823B1F0EFEAF0E080818093C6
S1130560AE0081818093AD00C09A1092640019821C
S11305708091AE008A838091AD008B8384EA90E001
S11305800E94450484EA90E00E944705E4EAF0E012
S113059082818093AC0091819093B5009081909377
S11305A06200813009F4C09880916200819F912D8E
S11305B01124969596959695990F292F220F220F1F
S11305C0920F891B90E09093610080936000B8BA09
S11305D01BBA80916000909161000E9433020E94D6
S11305E0590280916200819F812D11248695869500
S11305F0869580936200819F912D112496959695FE
S11306009695990F292F220F220F920F891B90E0A4
S113061090936100809360001BBAC8BA8091600017
S1130620909161000E9433020E9459028091B500AA
S1130630819F912D1124969596959695990F292F22
S1130640220F220F920F891B90E0909361008093F8
S113065060001BBAD8BA80916000909161000E943A
S113066033020E9459028091B500819F812D11248B
S11306708695869586958093B500819F912D11244A
S1130680969596959695990F292F220F220F920FE2
S1130690891B90E090936100809360001BBAE8BAD4
S11306A080916000909161000E9433020E9459027F
S11306B08091AC00819F912D1124969596959695E5
S11306C0990F292F220F220F920F891B90E09093EC
S11306D06100809360001BBAF8BA80916000909129
S11306E061000E9433020E9459028091AC00819FF4
S11306F0812D11248695869586958093AC00819FE3
S1130700912D1124969596959695990F292F220F40
S1130710220F920F891B90E09093610080936000F8
S11307201BBA08BB80916000909161000E94330263
S11307300E94590207CF81E080B981B1837081B9E9
S1130740089584EA86BF06B607FEFDCF089584E9BE
S113075086BF06B604FCFDCF0895811102C084E86B
S113076001C084EC86BF06B607FEFDCF83B10895B1
S113077083B984E886BF06B607FEFDCF08950F93BC
S11307801F93CF93DF93182FEB01042F0E94A10333
S113079082EA0E94B803812F0E94B803002361F00B
S11307A0015010E00F5F1F4F0C0F1D1F89910E9415
S11307B0B803C017D107D1F70E94A703DF91CF91E7
S11307C01F910F9108950F931F93CF93DF93D82F09
S11307D08B01C42F0E94A10382EA0E94B8038D2FCB
S11307E00E94B8030E94A7030E94A10383EA0E9407
S11307F0B803CC2349F0C1508C2F0E94AD03F801FB
S113080081938F01C111F7CF0E94A703DF91CF918C
S11308101F910F910895CF93DF9300D0CDB7DEB72A
S11308208A830E949B03198241E0BE016F5F7F4F60
S113083080E00E94BF038A8183718A8341E0BE0104
S11308406E5F7F4F81E00E94BF030F900F90DF9196
S1130850CF910895CF93DF9300D0CDB7DEB76A83ED
S11308608378898341E0BE016F5F7F4F8EE00E94F1
S1130870BF0341E0BE016E5F7F4F8FE00E94BF0364
S11308800F900F90DF91CF9108950F931F93CF9303
S1130890DF93CDB7DEB727970FB6F894DEBF0FBE50
S11308A0CDBFFC0180818C3308F0D9C091819C3389
S11308B008F0D7C03281383108F0D5C02381213205
S11308C008F0D3C0A481A73008F0D1C0B581BD30F1
S11308D008F0CFC066817781AB014C565740483C45
S11308E0510508F0C8C0EDEC8E9FF12D1124F6954A
S11308F0F695F6950F2F000F102F110F110F100FF3
S1130900811B10E1F19F800D11248F7789839E9FB5
S1130910812D1124869586958695182F110FF12F18
S1130920FF0FFF0FF10F9F1BF0E18F9F900D11241C
S11309309F779A833E9F812D11248695869586956F
S1130940F82FFF0F9F2F990F990F9F0F391B10E15D
S1130950819F300D11243F733B832E9F812D1124E1
S1130960869586958695382F330F932F990F990F77
S1130970930F291B90E1899F200D11242F732C8341
S1130980AE9F812D1124869586958695880F982F84
S1130990990F990F890FA81BA770AD83BE9FE12DF6
S11309A01124E695E695E6959E2F990F892F880FD9
S11309B0880F890FB81BF0E1EF9FB00D1124BF71B0
S11309C0BE83603D774020F1B068BE834456510930
S11309D09A01ADECBCEC0E94D4059695879596954A
S11309E0879596958795BC01660F771F9C01220F0A
S11309F0331F220F331F220F331F260F371FBA0155
S1130A00621B730B20E1829F600D11246F831EC053
S1130A109A01ADECBCEC0E94D40596958795969509
S1130A20879596958795BC01660F771F9C01220FC9
S1130A30331F220F331F220F331F260F371F421B72
S1130A40530BF0E18F9F400D11244F8347E0BE010B
S1130A506F5F7F4F82E00E94BF0380E00DC081E0A2
S1130A600BC081E009C081E007C081E005C081E0DE
S1130A7003C081E001C081E027960FB6F894DEBF81
S1130A800FBECDBFDF91CF911F910F9108950F93AA
S1130A901F93CF93DF93CDB7DEB727970FB6F894A4
S1130AA0DEBF0FBECDBF8C0147E0BE016F5F7F4F3D
S1130AB082E00E94E3038981982F969596959695F6
S1130AC09E70292F220F220F920F282F2F70920F22
S1130AD0F80190839A81292F2695269526952E70C4
S1130AE0322F330F330F230F9F70920F91839B810B
S1130AF0292F2695269526952670322F330F330FEE
S1130B00230F9F70920F92839C81292F26952695FF
S1130B1026952670322F330F330F230F9F70920FB9
S1130B2093839D81977094834E8144FB992790F918
S1130B30990F292F220F220F920F242F2F70920F1B
S1130B4095839F81292F22952F7030E0B901660F7C
S1130B50771F220F331F220F331F220F331F260F3D
S1130B60371F2459384F9F70290F311D44231CF01F
S1130B703783268305C02C593F4FF80137832683DA
S1130B80881F8827881F27960FB6F894DEBF0FBEEC
S1130B90CDBFDF91CF911F910F910895EE0FFF1FED
S1130BA00590F491E02D0994A29FB001B39FC00178
S1130BB0A39F700D811D1124911DB29F700D811D85
S10D0BC01124911D0895F894FFCF4D
S9030000FC
